:030000000209886A
:0C098800787FE4F6D8FD7581110208F6B6
:08099400000C0006000300093D
:0F095900E51125E02408F808E6F5A07F647E008C
:10096800E4FDFCC3ED9FEC9E5015E4FBFA0BBB00C5
:0F097800010ABA04F8BBFBF50DBD00010C80E4C9
:01098700224D
:1008F60078087C007D007BFF7A0979947E007F086A
:100906001208D0C291C290E4F5A030904130911CFB
:10091600751000751103C3E5106480948040EB12D6
:100926000959E511151170EE151080EA2091DBE4E6
:10093600F510F511C3E5119404E510648094805018
:10094600C91209590511E51170EA051080E6E4F5AA
:03095600A080B7C7
:10080000E709F608DFFA8046E709F208DFFA803EDA
:1008100088828C83E709F0A3DFFA8032E309F608C7
:10082000DFFA8078E309F208DFFA807088828C832F
:10083000E309F0A3DFFA806489828A83E0A3F608E3
:10084000DFFA805889828A83E0A3F208DFFA804CBD
:1008500080D280FA80C680D4806980F28033801094
:1008600080A680EA809A80A880DA80E280CA8033FD
:1008700089828A83ECFAE493A3C8C582C8CCC58375
:10088000CCF0A3C8C582C8CCC583CCDFE9DEE78045
:100890000D89828A83E493A3F608DFF9ECFAA9F0C4
:1008A000EDFB2289828A83ECFAE0A3C8C582C8CC1A
:1008B000C583CCF0A3C8C582C8CCC583CCDFEADE33
:1008C000E880DB89828A83E493A3F208DFF980CC95
:1008D00088F0EF60010E4E60C388F0ED2402B4048E
:1008E0000050B9F582EB2402B4040050AF23234535
:0608F00082239008507302
:00000001FF
