:100000000C942A000C943F000C943F000C943F0089
:100010000C943F000C943F000C943F000C943F0064
:100020000C943F000C943F000C943F000C943F0054
:100030000C943F000C943F000C943F000C943F0044
:100040000C943F000C943F000C943F000C943F0034
:100050000C943F0011241FBECFE5D8E0DEBFCDBF1A
:1000600010E0A0E6B0E0EAE1F6E002C005900D92F3
:10007000A437B107D9F70E94E1020C940B030C944A
:100080000000813001F130F08230B1F1833009F4A9
:100090004CC00895413059F42AB381E090E002C089
:1000A000880F991F6A95E2F7822B8ABB08952AB3BD
:1000B00081E090E002C0880F991F6A95E2F7809571
:1000C00082238ABB0895413059F427B381E090E040
:1000D00002C0880F991F6A95E2F7822B87BB0895AB
:1000E00027B381E090E002C0880F991F6A95E2F77C
:1000F0008095822387BB0895413059F424B381E071
:1001000090E002C0880F991F6A95E2F7822B84BBAA
:10011000089524B381E090E002C0880F991F6A958A
:10012000E2F78095822384BB0895413059F421B3CE
:1001300081E090E002C0880F991F6A95E2F7822B58
:1001400081BB089521B381E090E002C0880F991F20
:100150006A95E2F78095822381BB0895813099F0FA
:1001600028F08230E9F0833041F10895613019F4CC
:100170008FEF8ABB0895611102C01ABA08958AB33D
:10018000682B6ABB0895613019F48FEF87BB08951F
:10019000611102C017BA089587B3682B67BB089531
:1001A000613019F48FEF84BB0895611102C014BA55
:1001B000089584B3682B64BB0895613019F48FEF00
:1001C00081BB0895611102C011BA089584B3682BF0
:1001D00064BB0895813001F130F08230B1F1833099
:1001E00009F44CC00895413059F42BB381E090E0FC
:1001F00002C0880F991F6A95E2F7822B8BBB089586
:100200002BB381E090E002C0880F991F6A95E2F756
:10021000809582238BBB0895413059F428B381E047
:1002200090E002C0880F991F6A95E2F7822B88BB85
:10023000089528B381E090E002C0880F991F6A9565
:10024000E2F78095822388BB0895413059F425B3A5
:1002500081E090E002C0880F991F6A95E2F7822B37
:1002600085BB089525B381E090E002C0880F991FF7
:100270006A95E2F78095822385BB0895413059F451
:1002800022B381E090E002C0880F991F6A95E2F7DF
:10029000822B82BB089522B381E090E002C0880FD8
:1002A000991F6A95E2F78095822382BB0895813079
:1002B00041F028F0823039F0833039F008956BBB7B
:1002C000089568BB089565BB089562BB0895CF93F8
:1002D000C82F40E060E082E00E94EA0040E061E078
:1002E00082E00E94EA0041E062E082E00E94EA00CF
:1002F0006C2F607F83E00E94570140E062E082E063
:100300000E94EA008FEC97E00197F1F700C000002F
:1003100041E062E082E00E94EA008FEC97E0019702
:10032000F1F700C000006C2F6295607F83E00E94AF
:10033000570140E062E082E00E94EA008FEC97E023
:100340000197F1F700C0000041E062E082E00E9406
:10035000EA008FEC97E00197F1F700C00000CF9121
:10036000089541E060E082E00E94410041E062E0E7
:1003700082E00E94410041E061E082E00E94410091
:1003800060EF83E00E94AE002FE788E391E0215008
:1003900080409040E1F700C0000082E00E946701C9
:1003A0008FEC97E00197F1F700C0000088E20E940F
:1003B00067018FEC97E00197F1F700C000008CE037
:1003C0000E9467018FEC97E00197F1F700C00000F1
:1003D00081E00E9467018FE39CE90197F1F700C07B
:1003E000000086E00E94670180E80E9467018FE9B3
:1003F0009FE00197F1F700C000000895CF93C82F48
:1004000041E060E082E00E94EA0040E061E082E0DA
:100410000E94EA0041E062E082E00E94EA006C2F64
:10042000607F83E00E94570140E062E082E00E942A
:10043000EA008FE99FE00197F1F700C0000041E07A
:1004400062E082E00E94EA008FE99FE00197F1F705
:1004500000C000006C2F6295607F83E00E9457010E
:1004600040E062E082E00E94EA008FE99FE00197AD
:10047000F1F700C0000041E062E082E00E94EA0083
:100480008FE99FE00197F1F700C00000CF91089538
:100490000F931F93CF93FC018081882389F08F01F4
:1004A000C0E00E94FE018FE99FE00197F1F700C0D4
:1004B0000000CF5FF801EC0FF11D80818111F1CFB9
:1004C000CF911F910F910895813031F060F082300B
:1004D00029F0833029F006C0605C05C06C5E03C063
:1004E0006C5A01C060E0862F80680E946701089501
:1004F000CF93DF93EA010E946402CE010E9448027A
:10050000DF91CF9108951F93CF93DF93CDB7DEB7DF
:100510002A970FB6F894DEBF0FBECDBFAC01892B72
:1005200021F480E30E94FE013BC010E0E1E0F0E036
:10053000EC0FFD1FE10FF11D9A01ADECBCEC0E9428
:10054000FC029695879596958795969587959C013B
:10055000220F331F880F991F880F991F880F991F2B
:10056000820F931F9A01281B390BC901805D80837C
:100570009A010E94FC02AC01569547955695479505
:10058000569547951F5F4115510581F6112341F09E
:10059000FE01E10FF11D80810E94FE011150C1F7A3
:1005A0002A960FB6F894DEBF0FBECDBFDF91CF9174
:1005B0001F91089581E00E94670182E00E94670117
:1005C00008950E94B1010E94DA0260E080E00E947A
:1005D000640280E690E00E9448024EE650E060E04F
:1005E00081E00E94780267E081E00E9464028EE16F
:1005F00090E00E948302FFCFA29FB001B39FC00191
:10060000A39F700D811D1124911DB29F700D811D3E
:0A0610001124911D0895F894FFCF06
:10061A006D6F68616D656469736D61696C006168AD
:04062A006D65640096
:00000001FF
