:03000000020DC32B
:0C0DC300787FE4F6D8FD75816702080017
:100D170000000001000100010001000000010001C6
:100D270000010001000000010001000100010000B6
:100D37003734316F383532303936333D2F2A2D2B42
:050D47004552524F521D
:10080000E4F50FF510F511F512F513F51478157CD4
:1008100000FD7BFF7A0D7917FE7F20120ADA75360C
:100820006175374E78387C007D007BFF7A0D793713
:100830007E007F10120ADA78487C007D007BFF7A08
:100840000D79477E007F05120ADA7590FF750C005E
:10085000750D00750E0FE4F508F509AD09ED75F09D
:1008600008A42415F8E6FE08E6FFC006C007ED75EB
:10087000F008A42417F8E6FC08E6FDC004C005A9AA
:1008800009E975F008A42419F8E6FA08E6FBE97509
:10089000F008A4241BF8E6FE08E6FFE925E025E0C1
:1008A0002438F8E6FDAC09EC25E025E02439F8E62B
:1008B000F9EC25E025E0243AF8E6FCE50925E025F9
:1008C000E0243BF8E6F5588C5789568D558E538FAA
:1008D00054D005D004D007D006120C738F35E535FF
:1008E000642F6011E535642A600BE535642D6005E1
:1008F000E535B42B0C750C00750D00750E118535A2
:1009000036E535645A6029E535643D6023E5356494
:100910002F601DE535642A6017E535642D6011E50B
:1009200035642B600BAB0CAA0DA90EAF35120D4C24
:10093000E535643D60030209F1E536B42A0FAC11D8
:10094000AD12AE0FAF10120B008E138F14E536648C
:100950002F7049E512451170347FC0FE120DB9E4C5
:10096000F50AF50B7448250BF8E6FF120DCF050BC1
:10097000E50B7002050AC3940AE50A64809480407E
:10098000E37FF47E01120D74120CCD800FAC11AD1B
:1009900012AE0FAF10120B128E138F14E536B42D5A
:1009A00036D3E5109512E5116480F8E50F64809860
:1009B000400EE5109512F514E50F9511F51380170B
:1009C000C3E5129510F514E511950FF5137FC07E60
:1009D00000120DB9753759E536B42B0CE510251208
:1009E000F514E50F3511F513AD37AF14AE13120B37
:1009F000E70509E50970020508C39404E508648069
:0A0A00009480500302085B020856C0
:100CCD007FAC120D9C120DB57FAC120D9C120DB5A3
:100CDD007FAC120D9C120DB57F5E120D9C120DB5E1
:100CED007F1C7E00120DB97F0E7E00120DB97F069E
:100CFD007E00120DB97F017E00120DB97FAC120D71
:0A0D0D009CE4FFFE120DB90208007D
:040DB5007F387E0005
:0A0DB900C2B3C2B4120D96C2B222FA
:040C73008D828C835F
:100C770075595AEE4F24FF9290E583458224FF92DF
:100C870091EA4B24FF9292E553455424FF92932017
:100C97009403855559209503855659209603855702
:100CA7005920970DE558B46F05120CCD8003855870
:100CB70059E559645A600CAF59120DCF7F647E0015
:050CC700120D74AF598D
:010CCC002205
:0A0DCF00C2B3D2B4120D96C2B222D4
:100D4C00EF3395E0FEEF24D0F54EEE34FFF54D1267
:100D5C000B48FFAEF07C007D0A120B00E54E2FFF16
:080D6C00E54D3E8FF0020B7310
:060BE7008E4D8F4E8D4F74
:100BED00E4F550F5517FC0FE120DB9E54FB459052E
:100BFD007F2D120DCFAE4DAF4E7C007D0A120B1224
:100C0D00AB05AA04AE4DAF4E7C007D0A120B128EC1
:100C1D004D8F4EAF03EF2430FF74542551F8A607C6
:100C2D000551E55170020550D3E54E9400E54D6434
:100C3D0080948050C0E55124FFF553E55034FFF505
:100C4D0052C3E55264809480401BC2B3D2B4745435
:100C5D002553F8E6F5A0120D98C2B2E55315537061
:050C6D00E0155280DCDF
:010C7200225F
:060D96008FA0D2B27FAC79
:100D9C00E4FDFCE4FEEED39F50030E80F80DBD0085
:080DAC00010CED64044C70EB36
:010DB400221C
:100D7400758AEF758CAFD28CEF1FAC0670011E4CD8
:100D8400600D308DFDC28D758AEF758CAF80E9C220
:020D94008C22AF
:100A0A00E709F608DFFA8046E709F208DFFA803ECE
:100A1A0088828C83E709F0A3DFFA8032E309F608BB
:100A2A00DFFA8078E309F208DFFA807088828C8323
:100A3A00E309F0A3DFFA806489828A83E0A3F608D7
:100A4A00DFFA805889828A83E0A3F208DFFA804CB1
:100A5A0080D280FA80C680D4806980F28033801088
:100A6A0080A680EA809A80A880DA80E280CA8033F1
:100A7A0089828A83ECFAE493A3C8C582C8CCC58369
:100A8A00CCF0A3C8C582C8CCC583CCDFE9DEE78039
:100A9A000D89828A83E493A3F608DFF9ECFAA9F0B8
:100AAA00EDFB2289828A83ECFAE0A3C8C582C8CC0E
:100ABA00C583CCF0A3C8C582C8CCC583CCDFEADE27
:100ACA00E880DB89828A83E493A3F208DFF980CC89
:100ADA0088F0EF60010E4E60C388F0ED2402B40482
:100AEA000050B9F582EB2402B4040050AF23234529
:060AFA008223900A5A73EA
:100B0000EF8DF0A4A8F0CF8CF0A428CE8DF0A42E09
:020B1000FE22C3
:100B1200C2D5EC30E709B2D5E4C39DFDE49CFCEEFE
:100B220030E715B2D5E4C39FFFE49EFE120B92C3D9
:100B3200E49DFDE49CFC8003120B9230D507C3E4D4
:060B42009FFFE49EFE226D
:100B4800BB010A89828A83E0F5F0A3E02250068778
:100B5800F009E71922BBFE07E3F5F009E31922893A
:0B0B6800828A83E493F5F0740193226D
:100B7300BB010A89828A83F0E5F0A3F0225006F7CD
:0F0B830009A7F01922BBFE06F3E5F009F31922CA
:100B9200BC000BBE0029EF8DF084FFADF022E4CC47
:100BA200F875F008EF2FFFEE33FEEC33FCEE9DEC10
:100BB200984005FCEE9DFE0FD5F0E9E4CEFD22ED56
:100BC200F8F5F0EE8420D21CFEADF075F008EF2FA0
:100BD200FFED33FD4007985006D5F0F222C398FD91
:050BE2000FD5F0EA222E
:00000001FF
