:100000000C942A000C9447000C9447000C94470071
:100010000C9447000C9447000C9447000C94470044
:100020000C9447000C9447000C9447000C94470034
:100030000C9447000C9447000C9447000C94470024
:100040000C9447000C9447000C9447000C94470014
:100050000C94470011241FBECFE5D8E0DEBFCDBF12
:1000600010E0A0E6B0E0E0EEF7E002C005900D92EF
:10007000A037B107D9F710E0A0E7B0E001C01D92AA
:10008000AE38B107E1F70E9449000C94EE030C94DE
:100090000000EF92FF920F931F93DF93CF93CDB7A2
:1000A000DEB727970FB6F894DEBF0FBECDBF0E9414
:1000B00090010E9489027E010894E11CF11C08EC69
:1000C00010E0C7010E9465018B810E94A10280E6B9
:1000D00090E00E9493028A810E94A10280E690E053
:1000E0000E94930289810E94A10282E690E00E9410
:1000F000930280E197E2F8013197F1F70197D9F780
:10010000E0CFFC01DB012081822F82958F703AE0E5
:10011000839FC00111242F70280F2C932181822FDF
:1001200082958F70839FC00111242F70280F119624
:100130002C9311972281822F82958F70839FC0010B
:1001400011242F70280F12962C9312972481822F3E
:1001500082958F70839FC00111242F70280F1496F1
:100160002C9314972581822F82958F70839FC001D5
:1001700011242F70280F15962C9315972681822F06
:1001800082958F70839FC00111242F70280F1696BF
:100190002C930895FC01DB0110824C91842F6AE0BE
:1001A0000E94DD02282F30E094E0220F331F9A9541
:1001B000E1F7842F0E94DD02922B918311964C91DE
:1001C0001197842F0E94DD02282F30E084E0220F57
:1001D000331F8A95E1F7842F0E94DD02922B9283D0
:1001E00012964C911297842F0E94DD02282F30E046
:1001F00074E0220F331F7A95E1F7842F0E94DD020D
:10020000922B938314964C911497842F0E94DD02B5
:10021000282F30E054E0220F331F5A95E1F7842F46
:100220000E94DD02922B958315964C911597842F91
:100230000E94DD02282F30E094E0220F331F9A95B0
:10024000E1F7842F0E94DD02922B968316964C9143
:10025000842F0E94DD02282F30E084E0220F331F1C
:100260008A95E1F7842F0E94DD02922B97830895EF
:10027000EF92FF920F931F937C01E0917000F09139
:100280007100108281E08093720080ED0E94B901BC
:1002900000E710E0C8010E94D6010E948302F80125
:1002A00080819181B7010E94CA0088E0809372002A
:1002B00080ED0E94B901C8010E94D6010E9483020C
:1002C0001F910F91FF90EF900895EF92FF920F937F
:1002D0001F937C01E0917000F0917100108281E029
:1002E0008093720080ED0E94B90100E710E0C80120
:1002F0000E94D6010E94830281ED0E94B901C801CB
:100300000E94FB010E94830280917400909175000D
:10031000B7010E9481001F910F91FF90EF90089507
:1003200084E4809379008CE080937A008BE790E0FE
:100330009093750080937400E9E7F0E027E0209344
:100340007600399782E890E0918380832093720051
:10035000CF010E94AC010895FC018285813011F02B
:100360008CE001C080E280B9818582B91382178256
:100370000895982F44EA34E824E946BF06B607FEFC
:10038000FDCF81B1887F8830C1F793B936BF06B6FB
:1003900007FEFDCF81B1887F883139F0803429F0A4
:1003A00026BF06B604FCFDCFE8CF0895DC01139606
:1003B0001C92139724E815C0ED91FC911197E90F59
:1003C000F11D808183B926BF06B607FEFDCF81B13E
:1003D000887F883211F08FEF08959F5F13969C936A
:1003E000139713969C91139712968C9112979817C6
:1003F00018F381E00895DC0117961C92179784EC9E
:1004000086BF24EC06B607FEFDCF81B1887F80351C
:10041000D9F417969C91179716968C911697981762
:1004200010F081E0089583B11496ED91FC91159739
:10043000E90FF11D808317968C9117978F5F1796A0
:100440008C93179726BFDECF8FEF0895DC0184ECE5
:1004500086BF80E29EE40197F1F724EC06B607FE22
:10046000FDCF81B1887F883BA1F413969C911397AF
:1004700012968C911297981790F4ED91FC91119728
:10048000E90FF11D808183B99F5F13969C931397A9
:1004900004C0883A11F08FEF089526BFDFCF81E0C6
:1004A0000895DC0117961C92179784EC86BF80E2B2
:1004B0009EE40197F1F724EC06B607FEFDCF81B16B
:1004C000887F8038C1F417969C91179716968C9167
:1004D00016979817B0F483B11496ED91FC91159787
:1004E000E90FF11D808317968C9117978F5F1796F0
:1004F0008C93179704C0803611F08FEF089526BFB4
:10050000DBCF82E0089584E986BF06B604FCFDCF08
:10051000089583E389B9539A549A529808955D9B3C
:10052000FECF8CB90895FC0104C05D9BFECF8CB951
:10053000319680818823C9F708955F9BFECF8CB1E7
:1005400008950F931F93082F10E004C06AE00E94E3
:10055000DD021F5F8823D1F7812F90E00E94E9021E
:100560009C0140E0A12FB0E00CC0E20FF31F802FF0
:100570006AE00E94DD029083802F0E94DD02082F36
:100580004F5FE42FFF27E7FDF095EA17FB076CF3B9
:10059000812F8150E82FFF27E7FDF095E20FF31F31
:1005A00007C090815D9BFECF905D9CB981503197D3
:1005B00087FFF7CF1F910F910895991B79E004C031
:1005C000991F961708F0961B881F7A95C9F7809592
:1005D0000895CF93DF93BC018230910510F462E05F
:1005E00070E0A0918C00B0918D00ED01E0E0F0E0B2
:1005F00040E050E021C0888199818617970769F40F
:100600008A819B81309719F09383828304C09093F1
:100610008D0080938C00FE0134C06817790738F490
:100620004115510519F08417950708F4AC01FE0136
:100630008A819B819C01E9012097E9F641155105CA
:10064000A9F1CA01861B970B049708F4BA01E0E0F0
:10065000F0E02AC08D919C91119784179507F9F4C9
:100660006417750781F412968D919C9113973097BA
:1006700019F09383828304C090938D0080938C0043
:10068000FD0132964FC0CA01861B970BFD01E80F92
:10069000F91F6193719302978D939C9343C0FD0161
:1006A000828193819C01D9011097A1F680918A00E3
:1006B00090918B00892B41F480916B0090916C009C
:1006C00090938B0080938A0040916D0050916E0052
:1006D0004115510541F44DB75EB780916900909185
:1006E0006A00481B590B20918A0030918B00241717
:1006F0003507B0F4CA01821B930B8617970780F069
:10070000AB014E5F5F4F8417950750F0420F531FA8
:1007100050938B0040938A00F9016193719302C05A
:10072000E0E0F0E0CF01DF91CF910895CF93DF9328
:10073000009709F450C0EC0122971B821A82A09105
:100740008C00B0918D00109709F140E050E0AC179B
:10075000BD0708F1BB83AA83FE0121913191E20F0D
:10076000F31FAE17BF0779F48D919C911197280F55
:10077000391F2E5F3F4F3983288312968D919C91AC
:1007800013979B838A834115510571F4D0938D0093
:10079000C0938C0020C012968D919C911397AD014F
:1007A000009711F0DC01D3CFFA01D383C2832191EA
:1007B0003191E20FF31FCE17DF0769F48881998129
:1007C000280F391F2E5F3F4FFA01318320838A8122
:1007D0009B8193838283DF91CF910895F894FFCF1B
:1007E0003A002020202020200020008E0000000061
:00000001FF
