:100000000C942A000C9471000C9447000C94470047
:100010000C9447000C9447000C9447000C94470044
:100020000C9447000C9447000C9447000C94470034
:100030000C9447000C9447000C9447000C94470024
:100040000C9447000C9447000C9447000C94470014
:100050000C94470011241FBECFE5D8E0DEBFCDBF12
:1000600010E0A0E6B0E0EAEFF4E002C005900D92E7
:10007000A237B107D9F720E0A2E7B0E001C01D9296
:10008000A637B207E1F70E94A1000C947B020C9402
:1000900000008BBB9698959A8FE19EE40197F1F74B
:1000A00000C0000082B3807C82BB1BBA08958BBB6A
:1000B000969A959A8FE19EE40197F1F700C00000AF
:1000C00082B3807C82BB1BBA0895CF93DF93EC018F
:1000D000899118161CF40E945700FACFDF91CF9136
:1000E00008951F920F920FB60F9211248F939F9332
:1000F0008091720090917300019769F48CB59DB561
:1001000090937500809374001DBC1CBC109273000A
:10011000109272001EBC8091720090917300892B26
:1001200049F48EB585608EBD81E090E090937300B8
:10013000809372009F918F910F900FBE0F901F9030
:100140001895CF93DF93CDB7DEB760970FB6F894CD
:10015000DEBF0FBECDBF8FEF8ABB8BEF81BB2FEF12
:1001600080E792E0215080409040E1F700C000001D
:100170008BB780648BBF85B7816085BF1FBC81E072
:100180000E9449008FEF9CE70197F1F700C0000043
:1001900088E30E9449008FEF9CE70197F1F700C0C8
:1001A00000008CE00E9449008FEF9CE70197F1F777
:1001B00000C00000789490989AE09A95F1F700C0FA
:1001C000909A20E52A95F1F7909885E38A95F1F7C2
:1001D0000000609174007091750080E090E00E94D2
:1001E0004B0121E338E04CE85FE30E94B1010E943B
:1001F00015016B017C0180E80E94490080E690E0D7
:100200000E9465004AE0BE016F5F7F4FC6010E94F9
:100210004602CE0101960E9465008AE690E00E94A7
:10022000650080E80E944900C6CF0E941C016894C6
:10023000B1110C94AB0108950E94900188F09F5772
:1002400098F0B92F9927B751B0F0E1F0660F771FFA
:10025000881F991F1AF0BA95C9F714C0B13091F0F0
:100260000E94AA01B1E008950C94AA01672F782F8B
:100270008827B85F39F0B93FCCF3869577956795B5
:10028000B395D9F73EF490958095709561957F4F21
:100290008F4F9F4F0895E89409C097FB3EF49095C7
:1002A0008095709561957F4F8F4F9F4F9923A9F04F
:1002B000F92F96E9BB279395F695879577956795DE
:1002C000B795F111F8CFFAF4BB0F11F460FF1BC022
:1002D0006F5F7F4F8F4F9F4F16C0882311F096E9B5
:1002E00011C0772321F09EE8872F762F05C0662363
:1002F00071F096E8862F70E060E02AF09A95660F1C
:10030000771F881FDAF7880F9695879597F90895D4
:1003100057FD9058440F551F59F05F3F71F04795B6
:10032000880F97FB991F61F09F3F79F0879508959B
:10033000121613061406551FF2CF4695F1DF08C0BA
:10034000161617061806991FF1CF869571056105D7
:1003500008940895E894BB2766277727CB0197F97F
:1003600008950E94C4010C9435020E94270238F0BF
:100370000E942E0220F0952311F00C941E020C9482
:10038000240211240C94AB010E94880170F3959F04
:10039000C1F3950F50E0551F629FF001729FBB277C
:1003A000F00DB11D639FAA27F00DB11DAA1F649F18
:1003B0006627B00DA11D661F829F2227B00DA11DCB
:1003C000621F739FB00DA11D621F839FA00D611D51
:1003D000221F749F3327A00D611D231F849F600D72
:1003E000211D822F762F6A2F11249F5750409AF09B
:1003F000F1F088234AF0EE0FFF1FBB1F661F771F27
:10040000881F91505040A9F79E3F510580F00C94F1
:100410001E020C94AB015F3FE4F3983ED4F3869543
:1004200077956795B795F795E7959F5FC1F7FE2B91
:10043000880F911D9695879597F9089597F99F676D
:1004400080E870E060E008959FEF80EC089500245C
:100450000A941616170618060906089500240A9429
:1004600012161306140605060895092E0394000CAF
:1004700011F4882352F0BB0F40F4BF2B11F460FF3E
:1004800004C06F5F7F4F8F4F9F4F0895BB274A3047
:1004900031F4992322F4BDE2909581959F4F0C94FD
:1004A0005202BB27FB015527AA27880F991FAA1FB5
:1004B000A41710F0A41B83955051B9F7A05DAA337F
:1004C00008F0A95DA193009779F7B111B19311924A
:1004D000CB010C946B02DC01FC01672F7191772337
:1004E000E1F7329704C07C916D9370836291AE17EF
:0A04F000BF07C8F30895F894FFCF8A
:1004FA0044495354414E43453D00636D202020201A
:02050A000000EF
:00000001FF
