:03000000020B18D8
:0C0B1800787FE4F6D8FD758118020B5FB1
:100BA400446F6F72204C6F636B656400656E74658F
:100BB400722050617373776F72640050617373773E
:100BC4006F726400707764206D617463686564009B
:100BD40054727920416761696E006F70656E696E49
:100BE4006720646F6F722E2E2E00636C6F73696EB4
:0A0BF4006720646F6F722E2E2E0032
:080CE4000608313233343500FB
:1009B400E4F5A07590FF120C797BFF7A0B79A412F1
:1009C4000BFE7FC0120CB57BFF7A0B79B0120BFEC5
:1009D4007F647E00120C2C7F01120CB57F02120C76
:1009E400B57BFF7A0B79BF120BFE7FC0120CB5E406
:1009F400F513F514120CD98F15740E2514F8A615D9
:100A0400AF15120CC77F647E00120C2C0514E5147C
:100A140070020513C39405E5136480948040D57F68
:100A240001120CB57F02120CB578087C007D007BA6
:100A3400007A00790E120997EF3395E04F7BFF702F
:100A44001D7A0B79C8120BFE7FC87E00120C2C1283
:100A54000C9D7F587E02120C2C120C52800E7A0BC5
:100A640079D4120BFE7FC87E00120C2C7F01120C6D
:060A7400B57F02120CB573
:010A7A002259
:100C9D007F01120CB57F02120CB57BFF7A0B79DE4A
:080CAD00120BFED2B0C2B1220D
:100C52007F01120CB57F02120CB57BFF7A0B79EE85
:100C6200120BFED2B0C2B1C2B0D2B17F907E0112DD
:070C72000C2CC2B0C2B1223C
:0A0CD9007F61BF6105120A7B80F8FD
:010CE30022EE
:100A7B00D296D295D294C293C292C291C290C29096
:100A8B00D293D292D291209406120C287F3122203D
:100A9B009506120C287F3222209606120C287F33E3
:100AAB0022C291D293D292D290209406120C287F1C
:100ABB003422209506120C287F3522209606120C24
:100ACB00287F3622C292D293D291D29020940612D2
:100ADB000C287F3722209506120C287F382220966F
:100AEB0006120C287F3922C293D292D291D2902037
:100AFB009406120C287F2A22209506120C287F3090
:0D0B0B0022209606120C287F23227F6122F3
:100BFE008B168A178918AB16AA17A918120800FFA8
:100C0E006017120CC77F0A7E00120C2C7401251877
:0A0C1E00F518E43517F51780DD2204
:100C79007F38120CB5120C287F01120CB5120C2802
:100C89007F80120CB5120C287F0E120CB57F027EE4
:040C990000020C2C1D
:040C28007F027E00C9
:100C2C00E4FDFCC3ED9FEE6480F8EC6480985015F5
:100C3C00E4FBFA0BBB00010ABA04F8BBFBF50DBDD3
:050C4C0000010C80DE38
:010C51002280
:100CB5008FA0C2B4C2B5D2B67F017E00120C2CC281
:020CC500B62255
:100CC7008FA0D2B4C2B5D2B67F017E00120C2CC25F
:020CD700B62243
:100B24000209B4E493A3F8E493A34003F68001F22A
:100B340008DFF48029E493A3F85407240CC8C333D2
:100B4400C4540F4420C8834004F456800146F6DFA1
:100B5400E4800B0102040810204080900CE4E47E41
:100B6400019360BCA3FF543F30E509541FFEE49396
:100B7400A360010ECF54C025E060A840B8E493A35D
:100B8400FAE493A3F8E493A3C8C582C8CAC583CA88
:100B9400F0A3C8C582C8CAC583CADFE9DEE780BE40
:010CEC000007
:10080000BB010689828A83E0225002E722BBFE02F6
:09081000E32289828A83E4932229
:10081900E3F5F009E208B5F06D606B80F3E3F5F0FC
:1008290009E608B5F060605E80F387F009E608B56F
:10083900F054605280F487F009E208B5F048604648
:1008490080F488828C8387F009E0A3B5F03860369C
:1008590080F488828C8387F009E493A3B5F027603C
:100869002580F388828C83E3F5F009E0A3B5F016BF
:10087900601480F388828C83E3F5F009E493A3B5CF
:10088900F004600280F2020944808580E7808E804E
:10089900D2803C8015806C807E809B80B5808B8067
:1008A900A1804F8070803A02095089828A83ECFACC
:1008B900E493F5F0A3C8C582C8CCC583CCE493A35F
:1008C900C8C582C8CCC583CCB5F070606E80E1899B
:1008D900828A83E493F5F0A3E208B5F05E605C8058
:1008E900F289828A83E0F5F0A3E608B5F04D604B02
:1008F90080F389828A83E0F5F0A3E208B5F03C60D1
:100909003A80F389828A83E493F5F0A3E608B5F087
:100919002A602880F2805389828A83ECFAE493F56D
:10092900F0A3C8C582C8CCC583CCE0A3C8C582C81A
:10093900CCC583CCB5F004600280E27FFFB5F0023C
:100949000F2240027F012289828A83ECFAE0F5F0C6
:10095900A3C8C582C8CCC583CCE0A3C8C582C8CC0E
:10096900C583CCB5F0D560D380E389828A83ECFA5C
:10097900E0F5F0A3C8C582C8CCC583CCE493A3C86D
:10098900C582C8CCC583CCB5F0B160AF80E288F030
:10099900ED2402B4040050A3F582EB2402B4040050
:0B09A90050992323458223900892738D
:00000001FF
